:100000000C942A000C9439010C943C000C943C0094
:100010000C943C000C943C000C943C000C943C0070
:100020000C943C000C943C000C943C000C943C0060
:100030000C943C000C943C000C943C000C943C0050
:100040000C943C000C943C000C943C000C943C0040
:100050000C943C0011241FBECFE5D8E0DEBFCDBF1D
:1000600020E0A0E6B0E001C01D92A136B207E1F7A2
:100070000E9470010C9460040C940000CF93C0E0C7
:100080000BC061E081E40E946D0160E070E08AEFE6
:1000900093E40E94B002CF5FCA3098F361E081E43C
:1000A0000E946901CF910895CF93C0E00FC061E035
:1000B00081E40E946D0161E082E40E946D0160E0D4
:1000C00070E08AEF93E40E94F802CF5FCA3078F3C1
:1000D00061E082E40E946901CF91089560E081E4CB
:1000E0000E94610161E081E40E94610162E081E4BB
:1000F0000E94610160E082E40E94610161E082E4AB
:100100000E94610162E082E40E94610162E084E495
:100110000E945D010E94A00208951092600060E0BC
:1001200081E40E94650160E070E48CE995E40E943E
:10013000B00260E081E40E94690181E08093600088
:100140000E943E0082E08093600062E081E40E94B1
:10015000650160E070E48CE995E40E94B00262E021
:1001600081E40E94690183E0809360000E943E0068
:10017000089580916000823059F460E082E40E942A
:10018000650160E070E48CE995E40E94F80220C00B
:1001900062E082E40E94650161E081E40E946901FD
:1001A0000E94540060E081E40E94690162E082E400
:1001B0000E94690162E081E40E94650160E082E4DE
:1001C0000E94650160E070E48CE995E40E94F80209
:1001D00062E081E40E9469010E94540061E081E4D0
:1001E0000E94690161E082E40E94690160E082E4AA
:1001F0000E94690180916000813079F018F08230AE
:10020000E9F0089560E081E40E94650160E070E437
:100210008CE995E40E94F802089560E081E40E9470
:10022000650160E070E48CE995E40E94F80260E00A
:1002300081E40E9469010E943E00089560E081E42B
:100240000E94650160E070E48CE995E40E94B002D0
:1002500060E081E40E9469010E943E0062E081E466
:100260000E94650160E070E48CE995E40E94F80268
:1002700008951F920F920FB60F9211242F933F9360
:100280004F935F936F937F938F939F93AF93BF939E
:10029000EF93FF930E94B900FF91EF91BF91AF914F
:1002A0009F918F917F916F915F914F913F912F918E
:1002B0000F900FBE0F901F90189540E00E9475019F
:1002C000089541E00E947501089541E00E94EF0108
:1002D000089540E00E94EF0108950E946902089588
:1002E0000E946E000E948D00FDCF823431F118F41F
:1002F000813439F008958334E1F1843409F454C031
:10030000089541110CC02AB381E090E002C0880F2B
:10031000991F6A95E2F7809582238ABB0895413040
:1003200009F05CC02AB381E090E002C0880F991FF9
:100330006A95E2F7822B8ABB089541110CC027B35E
:1003400081E090E002C0880F991F6A95E2F78095DE
:10035000822387BB0895413009F040C027B381E074
:1003600090E002C0880F991F6A95E2F7822B87BB45
:10037000089541110CC024B381E090E002C0880FC1
:10038000991F6A95E2F78095822384BB08954130D6
:1003900029F524B381E090E002C0880F991F6A9587
:1003A000E2F7822B84BB089541110CC021B381E098
:1003B00090E002C0880F991F6A95E2F7809582232A
:1003C00081BB0895413051F421B381E090E002C037
:1003D000880F991F6A95E2F7822B81BB08958234BA
:1003E00031F118F4813439F008958334E1F1843423
:1003F00009F454C0089541110CC02BB381E090E082
:1004000002C0880F991F6A95E2F7809582238BBB03
:100410000895413009F05CC02BB381E090E002C048
:10042000880F991F6A95E2F7822B8BBB08954111C3
:100430000CC028B381E090E002C0880F991F6A9534
:10044000E2F78095822388BB0895413009F040C0CF
:1004500028B381E090E002C0880F991F6A95E2F707
:10046000822B88BB089541110CC025B381E090E038
:1004700002C0880F991F6A95E2F78095822385BB99
:100480000895413029F525B381E090E002C0880F3E
:10049000991F6A95E2F7822B85BB089541110CC024
:1004A00022B381E090E002C0880F991F6A95E2F7BD
:1004B0008095822382BB0895413051F422B381E0BC
:1004C00090E002C0880F991F6A95E2F7822B82BBE9
:1004D00008958234A1F018F4813431F00895833402
:1004E000C9F0843411F108952BB381E090E002C08B
:1004F000880F991F6A95E2F782278BBB089528B36E
:1005000081E090E002C0880F991F6A95E2F7822788
:1005100088BB089525B381E090E002C0880F991F41
:100520006A95E2F7822785BB089522B381E090E0C7
:1005300002C0880F991F6A95E2F7822782BB08954F
:100540008FB780688FBF85B7816085BF85B78260B0
:1005500085BF8BB780648BBF089513BE12BE08950C
:100560008F929F92AF92BF92CF92DF92EF92FF92C3
:10057000CF93DF934B015C010E94AD02C0E0D0E05D
:100580000AC098B781E0892788BF8823D1F388B74C
:10059000816088BF2196BE0180E090E00E94410307
:1005A0006B017C0120E030E04AEF53E4C501B40167
:1005B0000E94A20320E030E040E85BE30E94A20337
:1005C0009B01AC01C701B6010E943C038823CCF219
:1005D00013BEDF91CF91FF90EF90DF90CF90BF904F
:1005E000AF909F908F90089515BC109204000895CD
:1005F0008F929F92AF92BF92CF92DF92EF92FF9233
:10060000CF93DF934B015C010E94F402C0E0D0E085
:100610000AC098B780E4892788BF8823D1F388B7B8
:10062000806488BF2196BE0180E090E00E94410373
:100630006B017C0120E030E04AEF53E4C501B401D6
:100640000E94A20320E030E040E85BE30E94A203A6
:100650009B01AC01C701B6010E943C038823CCF288
:1006600015BCDF91CF91FF90EF90DF90CF90BF90BE
:10067000AF909F908F9008950E947E0308F481E0D0
:100680000895E89409C097FB3EF490958095709585
:1006900061957F4F8F4F9F4F9923A9F0F92F96E9CE
:1006A000BB279395F695879577956795B795F11143
:1006B000F8CFFAF4BB0F11F460FF1BC06F5F7F4FE0
:1006C0008F4F9F4F16C0882311F096E911C07723F2
:1006D00021F09EE8872F762F05C0662371F096E8FB
:1006E000862F70E060E02AF09A95660F771F881FCA
:1006F000DAF7880F9695879597F90895990F00086E
:10070000550FAA0BE0E8FEEF16161706E807F907E3
:10071000C0F012161306E407F50798F0621B730B7E
:10072000840B950B39F40A2661F0232B242B252BFF
:1007300021F408950A2609F4A140A6958FEF811DA2
:10074000811D08950E94B5030C9426040E9418048C
:1007500038F00E941F0420F0952311F00C940F0430
:100760000C94150411240C945A040E94370470F35D
:10077000959FC1F3950F50E0551F629FF001729F46
:10078000BB27F00DB11D639FAA27F00DB11DAA1F55
:10079000649F6627B00DA11D661F829F2227B00DA2
:1007A000A11D621F739FB00DA11D621F839FA00D2D
:1007B000611D221F749F3327A00D611D231F849F7D
:1007C000600D211D822F762F6A2F11249F575040D4
:1007D0009AF0F1F088234AF0EE0FFF1FBB1F661F4F
:1007E000771F881F91505040A9F79E3F510580F018
:1007F0000C940F040C945A045F3FE4F3983ED4F336
:10080000869577956795B795F795E7959F5FC1F7BB
:10081000FE2B880F911D9695879597F9089597F966
:100820009F6780E870E060E008959FEF80EC089596
:1008300000240A94161617061806090608950024BF
:100840000A9412161306140605060895092E039439
:10085000000C11F4882352F0BB0F40F4BF2B11F4AD
:1008600060FF04C06F5F7F4F8F4F9F4F089557FD0C
:100870009058440F551F59F05F3F71F04795880F0E
:1008800097FB991F61F09F3F79F0879508951216A5
:1008900013061406551FF2CF4695F1DF08C0161651
:1008A00017061806991FF1CF869571056105089402
:1008B0000895E894BB2766277727CB0197F9089519
:0408C000F894FFCFDA
:00000001FF
